{
  "_format": "hh-sol-artifact-1",
  "contractName": "A",
  "sourceName": "contracts/Attack.sol",
  "abi": [
    {
      "inputs": [],
      "name": "owner",
      "outputs": [
        {
          "internalType": "address",
          "name": "",
          "type": "address"
        }
      ],
      "stateMutability": "view",
      "type": "function"
    },
    {
      "inputs": [],
      "name": "setOwner",
      "outputs": [],
      "stateMutability": "nonpayable",
      "type": "function"
    }
  ],
  "bytecode": "0x608060405234801561001057600080fd5b50610328806100206000396000f3fe608060405234801561001057600080fd5b50600436106100365760003560e01c806340caae061461003b5780638da5cb5b14610045575b600080fd5b610043610063565b005b61004d6100e4565b60405161005a919061020e565b60405180910390f35b336000806101000a81548173ffffffffffffffffffffffffffffffffffffffff021916908373ffffffffffffffffffffffffffffffffffffffff1602179055506100e26040518060400160405280600a81526020017f6d73672e73656e6465720000000000000000000000000000000000000000000081525033610108565b565b60008054906101000a900473ffffffffffffffffffffffffffffffffffffffff1681565b6101a0828260405160240161011e9291906102c2565b6040516020818303038152906040527f319af333000000000000000000000000000000000000000000000000000000007bffffffffffffffffffffffffffffffffffffffffffffffffffffffff19166020820180517bffffffffffffffffffffffffffffffffffffffffffffffffffffffff83818316178352505050506101a4565b5050565b60008151905060006a636f6e736f6c652e6c6f679050602083016000808483855afa5050505050565b600073ffffffffffffffffffffffffffffffffffffffff82169050919050565b60006101f8826101cd565b9050919050565b610208816101ed565b82525050565b600060208201905061022360008301846101ff565b92915050565b600081519050919050565b600082825260208201905092915050565b60005b83811015610263578082015181840152602081019050610248565b83811115610272576000848401525b50505050565b6000601f19601f8301169050919050565b600061029482610229565b61029e8185610234565b93506102ae818560208601610245565b6102b781610278565b840191505092915050565b600060408201905081810360008301526102dc8185610289565b90506102eb60208301846101ff565b939250505056fea26469706673582212207d33f3a32e16c5e8f6b121c987a8f526f80a8c5a974be4b262cfacf4c5ca976a64736f6c63430008090033",
  "linkReferences": {},
  "deployedLinkReferences": {}
}