{
  "_format": "hh-sol-artifact-1",
  "contractName": "B",
  "sourceName": "contracts/Attack.sol",
  "abi": [
    {
      "inputs": [
        {
          "internalType": "contract A",
          "name": "_a",
          "type": "address"
        }
      ],
      "stateMutability": "nonpayable",
      "type": "constructor"
    },
    {
      "inputs": [],
      "name": "a",
      "outputs": [
        {
          "internalType": "contract A",
          "name": "",
          "type": "address"
        }
      ],
      "stateMutability": "view",
      "type": "function"
    },
    {
      "inputs": [],
      "name": "owner",
      "outputs": [
        {
          "internalType": "address",
          "name": "",
          "type": "address"
        }
      ],
      "stateMutability": "view",
      "type": "function"
    }
  ],
  "bytecode": "0x608060405234801561001057600080fd5b5060405161041c38038061041c833981810160405281019061003291906101bb565b336000806101000a81548173ffffffffffffffffffffffffffffffffffffffff021916908373ffffffffffffffffffffffffffffffffffffffff16021790555080600160006101000a81548173ffffffffffffffffffffffffffffffffffffffff021916908373ffffffffffffffffffffffffffffffffffffffff160217905550600160009054906101000a900473ffffffffffffffffffffffffffffffffffffffff1673ffffffffffffffffffffffffffffffffffffffff166000366040516100fd929190610227565b600060405180830381855af49150503d8060008114610138576040519150601f19603f3d011682016040523d82523d6000602084013e61013d565b606091505b50505050610240565b600080fd5b600073ffffffffffffffffffffffffffffffffffffffff82169050919050565b60006101768261014b565b9050919050565b60006101888261016b565b9050919050565b6101988161017d565b81146101a357600080fd5b50565b6000815190506101b58161018f565b92915050565b6000602082840312156101d1576101d0610146565b5b60006101df848285016101a6565b91505092915050565b600081905092915050565b82818337600083830152505050565b600061020e83856101e8565b935061021b8385846101f3565b82840190509392505050565b6000610234828486610202565b91508190509392505050565b6101cd8061024f6000396000f3fe608060405234801561001057600080fd5b50600436106100365760003560e01c80630dbe671f1461003b5780638da5cb5b14610059575b600080fd5b610043610077565b6040516100509190610140565b60405180910390f35b61006161009d565b60405161006e919061017c565b60405180910390f35b600160009054906101000a900473ffffffffffffffffffffffffffffffffffffffff1681565b60008054906101000a900473ffffffffffffffffffffffffffffffffffffffff1681565b600073ffffffffffffffffffffffffffffffffffffffff82169050919050565b6000819050919050565b60006101066101016100fc846100c1565b6100e1565b6100c1565b9050919050565b6000610118826100eb565b9050919050565b600061012a8261010d565b9050919050565b61013a8161011f565b82525050565b60006020820190506101556000830184610131565b92915050565b6000610166826100c1565b9050919050565b6101768161015b565b82525050565b6000602082019050610191600083018461016d565b9291505056fea26469706673582212202f5f164b106a6a83c5c54b5369b69d1a10d9b68037acbe11e26f9d82d7eda8d564736f6c63430008090033",
  "linkReferences": {},
  "deployedLinkReferences": {}
}