{
  "_format": "hh-sol-artifact-1",
  "contractName": "C",
  "sourceName": "contracts/Attack.sol",
  "abi": [
    {
      "inputs": [
        {
          "internalType": "address",
          "name": "_b",
          "type": "address"
        }
      ],
      "stateMutability": "nonpayable",
      "type": "constructor"
    },
    {
      "inputs": [],
      "name": "attack",
      "outputs": [],
      "stateMutability": "nonpayable",
      "type": "function"
    },
    {
      "inputs": [],
      "name": "b",
      "outputs": [
        {
          "internalType": "address",
          "name": "",
          "type": "address"
        }
      ],
      "stateMutability": "view",
      "type": "function"
    }
  ],
  "bytecode": "0x608060405234801561001057600080fd5b506040516103cf3803806103cf833981810160405281019061003291906100db565b806000806101000a81548173ffffffffffffffffffffffffffffffffffffffff021916908373ffffffffffffffffffffffffffffffffffffffff16021790555050610108565b600080fd5b600073ffffffffffffffffffffffffffffffffffffffff82169050919050565b60006100a88261007d565b9050919050565b6100b88161009d565b81146100c357600080fd5b50565b6000815190506100d5816100af565b92915050565b6000602082840312156100f1576100f0610078565b5b60006100ff848285016100c6565b91505092915050565b6102b8806101176000396000f3fe608060405234801561001057600080fd5b50600436106100365760003560e01c80634df7e3d01461003b5780639e5faafc14610059575b600080fd5b610043610063565b60405161005091906101d6565b60405180910390f35b610061610087565b005b60008054906101000a900473ffffffffffffffffffffffffffffffffffffffff1681565b60008054906101000a900473ffffffffffffffffffffffffffffffffffffffff1673ffffffffffffffffffffffffffffffffffffffff166040516024016040516020818303038152906040527f40caae06000000000000000000000000000000000000000000000000000000007bffffffffffffffffffffffffffffffffffffffffffffffffffffffff19166020820180517bffffffffffffffffffffffffffffffffffffffffffffffffffffffff838183161783525050505060405161014e919061026b565b6000604051808303816000865af19150503d806000811461018b576040519150601f19603f3d011682016040523d82523d6000602084013e610190565b606091505b505050565b600073ffffffffffffffffffffffffffffffffffffffff82169050919050565b60006101c082610195565b9050919050565b6101d0816101b5565b82525050565b60006020820190506101eb60008301846101c7565b92915050565b600081519050919050565b600081905092915050565b60005b8381101561022557808201518184015260208101905061020a565b83811115610234576000848401525b50505050565b6000610245826101f1565b61024f81856101fc565b935061025f818560208601610207565b80840191505092915050565b6000610277828461023a565b91508190509291505056fea26469706673582212201910f9f7fd98802104f281cf71b307d3f8ce6f4c6337b06abbd596f8947437fe64736f6c63430008090033",
  "linkReferences": {},
  "deployedLinkReferences": {}
}